:020000040800F2
:10000000980B002079020008DD2C00083F2A000828
:10001000D92C000897030008E12E0008000000001A
:100020000000000000000000000000004D2D00084E
:100030000D05000800000000E12C00084F2D00080D
:10004000930200089302000893020008930200083C
:10005000930200089302000893020008930200082C
:10006000930200089302000893020008930200081C
:1000700093020008DD040008ED0400089302000864
:10008000FD04000893020008930200089302000890
:1000900093020008AD0500089302000893020008CF
:1000A00093020008930200089302000893020008DC
:1000B000D92D00089302000893020008930200085B
:1000C00093020008930200089302000893020008BC
:1000D00093020008930200089302000893020008AC
:1000E000930200089302000893020008930200089C
:1000F000930200089302000893020008930200088C
:10010000930200089302000893020008930200087B
:10011000930200089302000893020008930200086B
:10012000930200089302000893020008930200085B
:10013000930200089302000893020008930200084B
:1001400093020008930200089302000800000000D8
:10015000000000000000000000000000000000009F
:1001600000000000000000000000000093020008F2
:10017000930200089302000893020008930200080B
:1001800093020008930200089302000893020008FB
:100190009302000800000000F10700089302000825
:1001A00069080008930200089302000893020008FF
:1001B00093020008930200089302000893020008CB
:1001C00093020008930200089302000893020008BB
:1001D000930200089302000800F002F800F03CF8D7
:1001E0000AA090E8000C82448344AAF10107DA4592
:1001F00001D100F031F8AFF2090EBAE80F0013F0A8
:10020000010F18BFFB1A43F001031847F02D00003F
:10021000102E0000103A24BF78C878C1FAD85207CF
:1002200024BF30C830C144BF04680C607047000070
:100230000023002400250026103A28BF78C1FBD8EF
:10024000520728BF30C148BF0B6070471FB502F08E
:10025000BBFE1FBD10B510BD00F058F81146FFF7EA
:10026000F5FF02F05BFE00F076F803B4FFF7F2FF53
:1002700003BC00F07DF800000948804709480047AA
:10028000FEE7FEE7FEE7FEE7FEE7FEE7FEE7FEE746
:10029000FEE7FEE704480549054A064B70470000A3
:1002A000C52D0008D901000898050020980B0020F2
:1002B00098070020980700204FF0000200B5134671
:1002C00094469646203922BFA0E80C50A0E80C5076
:1002D000B1F12001BFF4F7AF090728BFA0E80C5027
:1002E00048BF0CC05DF804EB890028BF40F8042B20
:1002F00008BF704748BF20F8022B11F0804F18BF8D
:1003000000F8012B7047704770477047754600F042
:100310002BF8AE4605006946534620F00700854697
:1003200018B020B5FFF7B6FFBDE820404FF000063B
:100330004FF000074FF000084FF0000B21F00701CD
:10034000AC46ACE8C009ACE8C009ACE8C009ACE810
:10035000C0098D46704710B50446AFF300802046B3
:10036000BDE81040FFF781BF00487047340500200A
:1003700001491820ABBEFEE7260002007047014687
:10038000087800064A7840EA02408A7840EA02206B
:10039000CA781043704700BFFEE700002DE9F04126
:1003A0002DED028B06460C4617460CB1082F03D0E4
:1003B000BDEC028BBDE8F0813F48864200D0F7E7F4
:1003C0002078412802D16078F02800D0F0E7A078AA
:1003D00000283DD1E078012804D02C2821D02D28F8
:1003E00033D128E0207960B9607950B9A079AA2882
:1003F00007D1E079AA2804D1012030490870087695
:100400000EE0207960B9607950B9A079552807D1FC
:10041000E079552804D10220284908700120087687
:1004200014E0201DFFF7ABFF05462448456001207E
:10043000224948760AE0201DFFF7A1FF05461F4824
:10044000856001201D49887600E000BF00BFAFE74E
:10045000A07802282ED1201DFFF791FF0546E078F5
:100460000B280AD0182804D0312815D032281FD1E3
:1004700018E0284600F04CF81BE008EE105AB8EEE1
:10048000C80ADFED0F0A20EE200A0C4880ED050AAD
:1004900001200A4948770CE00848C5600120074957
:1004A000C87606E00548056101200449087700E0A8
:1004B00000BF00BF00BF7BE70B800F06FC040020DD
:1004C000CDCCCC3D09B1082A00D07047024B9842F0
:1004D00000D0FAE700BFF8E70B800F0610B502481E
:1004E00000F0B6FA10BD00006401002010B502480B
:1004F00000F0AEFA10BD0000C401002010B50248A3
:1005000000F0A6FA10BD0000240200207047000091
:100510002349086200F0010281F82420C0F3400260
:1005200081F82520C0F3800281F82620C0F3C002A4
:1005300081F82720C0F3002281F82820C0F3402250
:1005400081F82920C0F3802281F82A20C0F3C0223C
:1005500081F82B20C0F3003281F82C20C0F3403208
:1005600081F82D20C0F3803281F82E20C0F3C032F4
:1005700081F82F20C0F3004281F83020C0F34042C0
:1005800081F83120C0F3804281F83220C0F3C042AC
:1005900081F83320C0F3005281F834207047000006
:1005A000FC04002072B600BFFEE7000010B5024850
:1005B00000F083FC10BD00008402002070B5002410
:1005C00000201449087013E0134B144A40211448CA
:1005D00000F0C8FB00B112E01049C86800F0F4F95F
:1005E00005460E492A4608680B49FFF7D7FE641CEA
:1005F00040210B4800F0A6FB08B1082CE4D300BF53
:100600004021074800F09EFB10B10120014908700D
:1006100070BD00000400002024040020D40300204A
:10062000840200201CB507A103C9CDE900010822FE
:100630006946064800F04EF808B901201CBD0020AC
:10064000FCE7000001F0023200000000830F080602
:100650001CB507A103C9CDE9000108226946064877
:1006600000F038F808B901201CBD0020FCE70000AC
:1006700001F0021800000000830F08061CB507A156
:1006800003C9CDE9000108226946064800F022F8B6
:1006900008B901201CBD0020FCE7000001F0020B9E
:1006A00000000000830F08061CB507A103C9CDE9AF
:1006B000000108226946064800F00CF808B901203C
:1006C0001CBD0020FCE7000001F00231000000002A
:1006D000830F080670B58AB005460E46144601958C
:1006E0004FF0804002900020039005900690079004
:1006F00008900990092C1ED2DFE804F005080B0EC3
:100700001114171A1E000020049018E00120049014
:1007100015E00220049012E0032004900FE0042072
:1007200004900CE00520049009E00620049006E007
:100730000720049003E000BF0820049000BF00BF22
:10074000324601A9044800F0A8FA10B900200AB006
:1007500070BD0120FBE70000840200201CB50446A8
:1007600008A103C9CDE9000101A9204602F0B0FBB0
:10077000082269460548FFF7ADFF08B901201CBDF6
:100780000020FCE701F0002D00000000830F0806A8
:100790001CB507A103C9CDE9000108226946064836
:1007A000FFF798FF08B901201CBD0020FCE70000FE
:1007B00001F00001000000AA830F08061CB50446E2
:1007C00008A103C9CDE9000101A9204602F080FB80
:1007D000082269460548FFF77DFF08B901201CBDC6
:1007E0000020FCE701F0002C00000000830F080649
:1007F00010B5024800F061FB10BD0000E8020020C7
:1008000070B5002400201449087013E0134B144AFB
:100810004021144800F0A6FA00B112E01049C8685F
:1008200000F0D2F805460E492A4608680B49FFF742
:1008300049FE641C40210B4800F084FA08B1082CE2
:10084000E4D300BF4021074800F07CFA10B101203A
:100850000149087070BD00000500002064040020FC
:10086000FC030020E802002010B5024800F025FB40
:1008700010BD00004C03002010B51D4A1D4C03683C
:10088000A34201D102F554721B4C0368A34201D16B
:1008900002F5D46202640368D3F8803023F4F814BC
:1008A000838E44EA03430468C4F8803002F1700385
:1008B00043640368D3F8803023F0706490F83830D4
:1008C00044EA03630468C4F8803002F1B00383642F
:1008D000D833C364D833036518334365114602E047
:1008E00000230B60091D02F554739942F8D310BD23
:1008F00000A4004000680040006C00402DE9F04179
:10090000054614461E46D1F804C0BCF1000F0AD1BA
:10091000D1F810C0D1F808804CEA080CB1F800807A
:100920004CEA88430BE0D1F810C04CF0804CD1F871
:1009300008804CEA080CD1F800804CEA080391F8D2
:100940002080D1F81CC04CEA086CD1F818804CEA21
:10095000080CD1F814804CEA080CB1F80C804CEA71
:10096000084706EBC608D5F854C00CEBC802136064
:10097000121D1760121D002019E000F1030C14F87D
:100980000CC04FEA0C6800F1020C14F80CC048EAE5
:100990000C4800F1010C14F80CC048EA0C2C14F8B7
:1009A00000804CEA080CC2F800C0121D001DDFF8E0
:1009B0001480D1F80CC018F80CC08445DDD8BDE80F
:1009C000F0810000D22F00080146102929D2DFE86B
:1009D00001F0080A0C0E10121416181A1C1E202200
:1009E0002426002070470120FCE70220FAE70320BC
:1009F000F8E70420F6E70520F4E70620F2E70720F1
:100A0000F0E70820EEE70C20ECE71020EAE71420DE
:100A1000E8E71820E6E72020E4E73020E2E740207E
:100A2000E0E70020DEE7000010B5084800F039FDDF
:100A300008B1012010BD00220121044800F09CF8FB
:100A400008B10120F6E70020F4E70000840200204E
:100A500070B50446206C05682068066894F8440068
:100A600000F01F01042088402840E0B106F0040097
:100A7000C8B12068006800F0200028B9206800682C
:100A800020F004002168086094F8440000F01F0181
:100A900004208840216C4860206B002856D02046F6
:100AA000216B884752E094F8440000F01F010220B7
:100AB0008840284018B306F0020000B320680068A0
:100AC00000F0200040B92068006820F00A0021688A
:100AD0000860012084F8250094F8440000F01F010C
:100AE00002208840216C486000BF002084F8240068
:100AF00000BFE06A50B32046E16A884726E094F8D8
:100B0000440000F01F01082088402840F0B106F0A2
:100B10000800D8B12068006820F00E002168086045
:100B200094F8440000F01F0101208840216C4860C7
:100B30000120E06384F8250000BF002084F8240031
:100B400000BF606B10B12046616B884770BD00002C
:100B500070B5044600F0B6FD06462546681C10B187
:100B600004480068054400BF00F0ACFD801BA842AB
:100B7000FAD370BD1800002070B50346144693F8F0
:100B80005C5001F4C07000B100BF012D01D0022DF6
:100B90007DD11868826D01F0070010B102F00100EC
:100BA00018B301F0380010B102F00200E8B101F40E
:100BB000E07010B102F00400B8B101F4F05010B1CF
:100BC00002F0080088B101F4604010B102F010009A
:100BD00058B101F4403010B102F0200028B101F406
:100BE0007C0040B102F0400028B91868C06D40F0A8
:100BF00001001E68F06501F0070010B102F001006D
:100C000018BB01F0380010B102F00200E8B901F49D
:100C1000E07010B102F00400B8B901F4F05010B166
:100C200002F0080088B901F4604010B102F0100031
:100C300058B901F4403010B102F0200028B901F495
:100C40007C0040B102F0400028B11868C06D40F04F
:100C500002001E68F06501F0800030B11868D0F81D
:100C6000DC0020431E68C6F8DC0001F4807030B15F
:100C70001868D0F8E00020431E68C6F8E000186845
:100C8000406D08431E687065002070BDFFE7186E58
:100C900040F0020018660120F7E72DE9F041044614
:100CA0000E461746706800B900E000BF94F85C007B
:100CB000022821D12068D0F8C40000F4001030B11F
:100CC000206E40F4007020660120BDE8F0812068AD
:100CD000D0F8C400C0F301452B463A4631462046C1
:100CE000FFF70CFE0120A8402168C1F8CC000120CC
:100CF000A840A0650020E8E7206E40F008002066CC
:100D00000120E2E770B50446049D94F85C000128D8
:100D100010D1080140EA820040EA430028432668D7
:100D2000D6F8806026F03F0630432668C6F880007B
:100D3000002070BD206E40F0040020660120F8E71E
:100D4000704770470246402905D11368D3F89030A8
:100D500003F00F0004E01368D3F8983003F00F009D
:100D6000704700002DE9F04304460E469C4694F877
:100D70005C80B8F1020F7DD1402E26D12068D0F8DA
:100D8000900000F00F0030B9206E40F480702066B3
:100D90000120BDE8F0832068D0F89000C0F3012363
:100DA0002068D0F89000C0F3006040B12068D0F80F
:100DB0008000C0F3402010B1581C00F0030303EB87
:100DC000C309A06C00EBC90124E02068D0F89800AA
:100DD00000F00F0028B9206E40F4807020660120DA
:100DE000D7E72068D0F89800C0F301232068D0F836
:100DF0009800C0F3006040B12068D0F88000C0F3D4
:100E0000002010B1581C00F0030303EBC309E06C91
:100E100000EBC901086800F080405060506820B9BC
:100E20000868C0F38A40106003E0086820F0604062
:100E30001060086800F000509060086800F0004002
:100E40001061091D088880B2D0610868C0F30340B2
:100E5000D060086800F480105061086800F4001049
:100E600090610868C0F3066010620868C00F5062A5
:100E7000091D00E018E00F46002503E0785D0CF83E
:100E800005006D1CDFF82C90D06819F80000A8420E
:100E9000F4D8402E03D12068C0F8943002E02068D6
:100EA000C0F89C30002074E7206E40F008002066F7
:100EB00001206EE7D22F000870472DE9FC5F044641
:100EC0002068006D00F4E0572068406D07402068FE
:100ED000006D00F007082068406D00EA08082068EF
:100EE000006D00F038092068406D00EA09092068AB
:100EF000006D00F4710A2068406D00EA0A0A20685B
:100F0000006D00F4602B2068406D00EA0B0B206838
:100F1000456D2068066DC6F3801040B1C5F38010A2
:100F200028B14020216808652046FFF7C5FFC6F3B9
:100F30000020A0B1C5F3002088B12068D0F8D80007
:100F400000902068D0F8E0000099084000904FF42D
:100F50008070216808652046009900F0BBFA2FB127
:100F6000206807653946204600F0B6FAB8F1000F50
:100F700006D02068C0F850804146204600F076FA3E
:100F8000B9F1000F06D02068C0F8509049462046BD
:100F900000F086FAC6F3402048B1C5F3402030B1D6
:100FA0004FF4007021680865204600F096FAC6F3F9
:100FB000C01098B1C5F3C01080B12068D0F8D4003B
:100FC00001902068D0F8DC00019908400190802051
:100FD000216808652046019900F07DFAC6F340308B
:100FE00048B1C5F3403030B14FF400502168086576
:100FF000204600F06EFAC6F3C03048B1C5F3C030E9
:1010000030B14FF4004021680865204600F060FAD6
:10101000C6F3803050B1C5F3803038B14FF4804012
:1010200021680865206E40F080002066BBF1000F4B
:1010300006D02068C0F850B059462046FFF781FE20
:10104000BAF1000F06D02068C0F850A0206E40EA28
:101050000A002066206E10B12046FFF771FEBDE841
:10106000FC9F000070B504460CB9012070BD814999
:101070002068884200D100BFA068B0F5407F00D151
:1010800000BF94F85C0028B9002084F85D00204679
:1010900000F0F4F82068806920F010002168886171
:1010A00000F010FB05460DE000F00CFB401B0A2889
:1010B00008D9206E40F001002066032084F85C000F
:1010C0000120D3E72068806900F008000828EBD0F1
:1010D0002068806940F001002168886100F0F2FA20
:1010E00005460DE000F0EEFA401B0A2808D9206EF4
:1010F00040F001002066032084F85C000120B5E781
:101100002068806900F001000028EBD02068806929
:1011100040F002002168886156492068884202D167
:10112000554960680860207C012806D120688069E4
:1011300020F040002168886105E02068806940F067
:10114000400021688861607C012806D120688069A0
:1011500040F480402168886105E02068806920F4BF
:10116000804021688861A07C012806D120688069C0
:1011700020F480502168886105E02068806940F48F
:101180008050216888612068806920F44070A168DF
:101190000843216888612068806920F0A4002168E4
:1011A00088612068006920F0100021680861E0680B
:1011B000012806D12068806940F004002168886118
:1011C00020E0E068F0B1E068022815D0206880696E
:1011D00040F08000216888612068006940F01000BC
:1011E00021680861E06803280CD12068806940F01C
:1011F00020002168886105E02068806940F02000B7
:1012000021688861207E401E4106E069401E41EA57
:101210000020216A491E0843A18A491E40EA014074
:101220002168C861A068B0F5407F0FD1A06A401E58
:10123000E16A491E40EA0121206B401E41EA00118B
:10124000A08C401E41EA00402168C8602068D0F8A8
:10125000C000E16B08432168C1F8C0002046FFF7D9
:101260000BFB0020A0652066012084F85C000020B4
:10127000FCE60000006400400065004010B59CB032
:101280000446142117A8FFF717F8542102A8FFF706
:1012900013F86F492068884244D1801402904003BB
:1012A000109002A800F07AFB08B1FFF77BF96948BB
:1012B0000068401C674908600846006801280DD195
:1012C00000BF6548806D40F000706349886508463E
:1012D000806D00F00070019000BF00BF00BF5E484D
:1012E000C06C40F008005C49C8640846C06C00F05F
:1012F0000800019000BF00BF032017900220189043
:10130000002019901A9009201B9017A9534800F04B
:10131000E5F800221146152000F058FA152000F0DB
:1013200041FA92E04E492068884246D180140290EA
:101330004003109002A800F031FB08B1FFF732F92A
:1013400044480068401C434908600846006801287A
:101350000DD100BF4048806D40F000703E49886567
:101360000846806D00F00070019000BF00BF00BF14
:101370003948C06C40F002003749C8640846C06C68
:1013800000F00200019000BF00BF4FF440501790E2
:10139000022018900020199002201A9009201B901A
:1013A00017A9304800F09AF800221146562000F0A4
:1013B0000DFA562000F0F6F947E02B4920688842E4
:1013C00043D1801402904003109002A800F0E6FA86
:1013D00008B1FFF7E7F81F480068401C1D49086086
:1013E0000846006801280DD100BF1B48806D40F001
:1013F0000070194988650846806D00F00070019002
:1014000000BF00BF00BF1448C06C40F0020012498A
:10141000C8640846C06C00F00200019000BF00BF25
:101420001820179002201890002019901A900B2075
:101430001B9017A90B4800F051F8002211465820C4
:1014400000F0C4F9582000F0ADF91CB010BD000048
:10145000006400400800002000100240000C00481A
:101460000068004000040048006C004001F00102E8
:101470006AB1074B02689A4202D10122054B1A70E9
:10148000054B02689A4202D10122044B1A70704740
:1014900000640040040000200068004005000020B7
:1014A0007047014691F85C0001280BD1022081F8B9
:1014B0005C000868806920F001000A6890610020E3
:1014C00008667047086E40F0040008660120F8E7DF
:1014D00070477047704770477047704778B503464C
:1014E0000022D2E0012696400D6805EA0604002C91
:1014F0007BD00D7905F00305012D04D00D7905F0A1
:101500000305022D13D1986856000325B540A84362
:101510005600CD68B540284398605868012595402D
:10152000A8430D79C5F300159540284358600D79FF
:1015300005F00305032D07D10D7905F00305032DF3
:101540000CD18D68012D09D0D86856000325B5400F
:10155000A84356008D68B5402843D8600D7905F042
:101560000305022D13D1D60803F1200555F82600F6
:101570005507EE0E0F25B540A8435607F60E0D6928
:10158000B5402843D60803F1200545F82600186821
:1015900056000325B540A8430D7905F00305560014
:1015A000B540284318604D6805F44035002D6BD0D8
:1015B00000BF394D2D6E45F00105374E3566354675
:1015C0002D6E05F00105009500BF00BF4FEAB6354E
:1015D000960855F8260095072E0F0F25B540A8430D
:1015E000B3F1904F02D100251AE04DE02B4DAB42F4
:1015F00001D1012514E02A4DAB4201D102250FE0B3
:10160000284DAB4201D103250AE0274DAB4201D161
:10161000042505E0254DAB4201D1052500E0062556
:101620009607360FB5402843214D960845F8260009
:10163000204D2868A0434D6805F4801505B120436E
:101640001C4D28602D1D2868A0434D6805F4001529
:1016500005B12043174D2D1D2860164D2D1F2868FC
:10166000A0434D6805F4003505B12043114D2D1FF1
:1016700028602D1F2868A0434D6805F4803505B10A
:1016800020430C4D083D2860521C0D68D540002DAC
:101690007FF428AF78BD000000100240000400482D
:1016A00000080048000C00480010004800140048E2
:1016B00008000140080401400AB1816100E0816234
:1016C00070470000014800687047000010000020CB
:1016D00003480068034909680844014908607047E5
:1016E000100000201800002010B50024032000F096
:1016F000ABF80F2000F008F808B1012401E000F079
:101700002FF8204610BD000070B504460025114892
:101710000068D8B10F4800684FF47A71B1FBF0F05F
:101720000D490968B1FBF0F6304600F04FFF58B99B
:10173000102C07D200222146501E00F047F807481F
:10174000046004E0012502E0012500E001252846AF
:1017500070BD0000180000201C00002014000020B4
:1017600008B500BF0E48006E40F001000C49086645
:101770000846006E00F00100009000BF00BF00BFEF
:101780000846806D40F0805088650846806D00F006
:101790008050009000BF00BF00F0F6F808BD0000C8
:1017A000001002400146084600280DDB00BF00BFC4
:1017B00000F01F0301229A4043099B0003F1E0233C
:1017C000C3F8002100BF00BF00BF70472DE9F05FE4
:1017D00080460D46164601F085FB074639462A46E7
:1017E000334601F00700C0F1070ABAF1040F02D92D
:1017F0004FF0040A01E0C0F1070AD14600F1040AE3
:10180000BAF1070F02D24FF0000A01E0A0F1030A7B
:10181000D4464FF0010A0AFA09FAAAF1010A0AEAC3
:10182000020A0AFA0CFA4FF0010B0BFA0CFBABF1AF
:10183000010B0BEA030B4AEA0B042146404601F078
:1018400059FBBDE8F09F000000BF00F00702064B07
:1018500019684FF6FF031940044B0B4343EA02217A
:10186000014B196000BF70470CED00E00000FA0565
:1018700002468ABB4148006800F4C060B0F5806F42
:101880002BD13E488030006820F480703B4BC3F879
:1018900080001846006820F4C06040F400701860B2
:1018A0003748006832235843364BB0FBF3F0411CF5
:1018B00000E0491E3148406900F48060B0F5806F57
:1018C00001D10029F5D12D48406900F48060B0F5C0
:1018D000806F51D10320704708E0284880300068AD
:1018E00020F48070254BC3F8800045E0B2F5007FFE
:1018F0003AD12248006800F4C060B0F5806F2AD168
:101900001E488030006840F480701C4BC3F8800093
:101910001846006820F4C06040F400701860184851
:10192000006832235843174BB0FBF3F0411C00E032
:10193000491E1248406900F48060B0F5806F01D103
:101940000029F5D10D48406900F48060B0F5806F42
:1019500012D10320BFE709488030006840F480704E
:10196000064BC3F8800007E00448006820F4C0601C
:1019700040F48060014B18600020ACE7007000402C
:101980001C00002040420F000348806840F4804063
:101990000149886070470000007000402DE9F8435D
:1019A00004460027B846206800F40020B0F5002F58
:1019B00073D1B946FD48806D00F0805078B900BF02
:1019C000FA48806D40F08050F84988650846806D7F
:1019D00000F08050009000BF00BF4FF00109F448B4
:1019E000006840F48070F2490860FFF76BFE06461D
:1019F00006E0FFF767FE801B022801D9032705E0F8
:101A0000EB48006800F480700028F2D000BF002F7F
:101A100046D1E6489030006800F44075CDB1206DA5
:101A2000A84216D0E1489030006820F44075DF48A5
:101A3000D0F8900040F48030DC49C1F890000846AE
:101A4000D0F8900020F48030C1F890000846C0F82B
:101A5000905005F00100A0B1FFF734FE064608E003
:101A6000FFF730FE801B41F28831884201D90327FD
:101A700006E0CE489030006800F002000028EFD069
:101A800000BF5FB9C9489030006820F44070216DF4
:101A90000843C649C1F8900003E00CE0B84600E0F6
:101AA000B846B9F1010F05D1C048806D20F08050D3
:101AB000BE49886500BF207800F0010048B1BB48EE
:101AC0008830006820F0030061680843B749C1F816
:101AD0008800207800F00200022809D1B34888303D
:101AE000006820F00C00A1680843B049C1F88800E4
:101AF000207800F00400042809D1AC488830006840
:101B000020F03000E1680843A849C1F88800207837
:101B100000F00800082809D1A4488830006820F0A7
:101B2000C00021690843A149C1F88800207800F06D
:101B30001000102809D19D488830006820F44070BA
:101B4000616908439949C1F88800207800F02000B5
:101B5000202809D195488830006820F44060A169A8
:101B600008439249C1F88800207800F040004028DE
:101B700009D18E488830006820F44050E16908435C
:101B80008A49C1F88800207800F08000802809D1B7
:101B900086488830006820F44040216A0843834921
:101BA000C1F88800208800F48070B0F5807F09D1EA
:101BB0007E488830006820F44030616A08437B49E1
:101BC000C1F88800206800F40030B0F5003F09D16A
:101BD00076489C30006820F00300A16A08437349EE
:101BE000C1F89C00208800F40070B0F5007F09D196
:101BF0006E488830006820F44020E16A08436B4951
:101C0000C1F88800208800F48060B0F5806F13D19F
:101C100066488830006820F44010216B084363490F
:101C200088310860206BB0F5801F05D15F48C0681F
:101C300040F480105D49C860208800F40060B0F571
:101C4000006F13D159488830006820F44000616B60
:101C50000843564988310860606BB0F5800F05D1A4
:101C60005248C06840F480105049C860208800F491
:101C70008050B0F5805F13D14C488830006820F068
:101C80004070A16B0843494988310860A06BB0F1EE
:101C9000807F05D14548C06840F480104349C86042
:101CA000208800F40050B0F5005F13D13F48883021
:101CB000006820F04060E16B08433C4988310860CF
:101CC000E06BB0F1006F05D13848C06840F4801077
:101CD0003649C860208800F48040B0F5804F13D1A9
:101CE00032488830006820F04060216C08432F495A
:101CF00088310860206CB0F1006F05D12B48C068B6
:101D000040F480102949C860208800F40040B0F5F4
:101D1000004F13D125488830006820F04050616C96
:101D20000843224988310860606CB0F1805F05D1BA
:101D30001E48C06840F480301C49C860206800F428
:101D40008030B0F5803F13D118488830006820F00B
:101D50004040A16C0843154988310860A06CB0F17F
:101D6000804F05D11148C06840F480300F49C860E9
:101D7000206800F48020B0F5802F13D10B489C30F0
:101D8000006820F44010E16C084308499C31086069
:101D9000E06CB0F5001F05D10448C06840F4801025
:101DA0000249C8604046BDE8F883000000100240C8
:101DB000007000402DE9F04104460D464FF0000848
:101DC00014B90120BDE8F0817D48006800F00F00E3
:101DD000A8420ED27A48006820F00F0028437849C4
:101DE00008600846006800F00F00A84201D00120FA
:101DF000E8E7207800F00100002864D0606803283C
:101E000023D17048006800F0007008B90120D9E7BC
:101E100000F068FF06466C48864237D969488068FA
:101E200000F0F00030B1207800F0020002282DD13F
:101E3000A06858BB6348806820F0F00040F0800044
:101E4000604988604FF0800820E06068022806D171
:101E50005C48006800F4003040B90120B2E75948FE
:101E6000006800F4806008B90120ABE700F0B4F826
:101E700006465548864209D95248806820F0F0004D
:101E800040F080004F4988604FF080084D488068DE
:101E900020F00300616808434A498860FFF712FC9C
:101EA000074608E0FFF70EFCC01B41F2883188426C
:101EB00001D9032086E74348806800F00C00616880
:101EC000B0EB810FEED1207800F00200022820D183
:101ED000207800F00400042805D13A48806840F4D6
:101EE000E06038498860207800F00800082807D1B1
:101EF0003448806820F4605040F4E06031498860E4
:101F00003048806820F0F000A16808432D498860BF
:101F100008E0B8F1800F05D12A48806820F0F00071
:101F2000284988602648006800F00F00A84219D9A7
:101F30002348006820F00F00284321490860FFF77C
:101F4000C1FB074608E0FFF7BDFBC01B41F288312B
:101F5000884201D9032035E71948006800F00F00D6
:101F6000A842F0D1207800F00400042807D11548D9
:101F7000806820F4E060E1680843124988602078B6
:101F800000F00800082808D10E48806820F460504E
:101F9000216940EAC1000B49886000F01DF8094939
:101FA0008968C1F30311094A515C01F01F01C8405F
:101FB0000749086007480068FFF7A6FB02E7000032
:101FC000002002400010024000B4C404E22F0008C8
:101FD0001C0000201400002070B5224DAD6805F0F3
:101FE0000C05042D01D120483AE01E4DAD6805F0E6
:101FF0000C05082D01D11D4832E01A4DAD6805F0E1
:102000000C050C2D2BD1174DED6805F00304154D73
:10201000ED68C5F303156A1C022C0CD0032C09D102
:10202000124DB5FBF2F50F4EF668C6F3062605FB1A
:1020300006F10AE000BF0C4DB5FBF2F5094EF6685B
:10204000C6F3062605FB06F100BF00BF054DED688F
:10205000C5F341656D1C6B00B1FBF3F000E000209F
:1020600070BD0000001002400024F40000127A004D
:102070002DE9F843044614B90120BDE8F88320781F
:1020800000F00100002865D0FC48806800F00C07D3
:10209000FA48C06800F003060C2F01D1032E01D0CE
:1020A000082F0AD1F548006800F40030002851D00C
:1020B000606800284ED10120DFE700BF6068B0F5FE
:1020C000803F06D1ED48006840F48030EB4908605D
:1020D0001AE06068B0F5A02F0BD1E848006840F422
:1020E0008020E64908600846006840F480300860B7
:1020F0000AE0E248006820F48030E04908600846C1
:10210000006820F48020086000BF606888B1FFF795
:10211000D9FA054606E0FFF7D5FA401B642801D935
:102120000320AAE7D548006800F400300028F2D068
:1021300010E0FFF7C7FA054606E0FFF7C3FA401BB9
:10214000642801D9032098E7CC48006800F40030E7
:102150000028F2D1207800F00200022860D1C748A0
:10216000806800F00C07C548C06800F003060C2F1B
:1021700001D1022E01D0042F18D1C048006800F40C
:10218000806018B1E06808B9012076E7BB48406874
:1021900020F0FE40217C40EA0160B8494860B84820
:1021A0000068FFF7B1FA18B3012066E7E06800B3F2
:1021B000B248006840F48070B0490860FFF782FAC6
:1021C000054606E0FFF77EFA401B022801D90320EE
:1021D00053E7AA48006800F480600028F2D0A748BE
:1021E000406820F0FE40217C40EA0160A34948603D
:1021F00016E0A248006820F48070A0490860FFF74C
:1022000061FA054606E0FFF75DFA401B022801D996
:10221000032032E79948006800F480600028F2D17A
:10222000207800F00800082836D16069D0B19348C2
:102230009430006840F001009049C1F89400FFF725
:1022400041FA054606E0FFF73DFA401B022801D996
:10225000032012E789489430006800F0020000284B
:10226000F1D019E085489430006820F001008349DE
:10227000C1F89400FFF726FA054606E0FFF722FAB8
:10228000401B022801D90320F7E67C4894300068FF
:1022900000F002000028F1D1207800F004000428AA
:1022A00072D14FF000087548806D012121EA10704D
:1022B00078B100BF7148806D40F080506F498865EB
:1022C0000846806D00F08050009000BF00BF4FF0C6
:1022D00001086C48006800F48070B0B96948006873
:1022E00040F4807067490860FFF7ECF9054606E0A6
:1022F000FFF7E8F9401B022801D90320BDE6614839
:10230000006800F480700028F2D000BFA0680128A7
:1023100008D15A489030006840F001005749C1F890
:10232000900021E0A06805280FD154489030006843
:1023300040F004005149C1F890000846D0F89000E0
:1023400040F00100C1F890000EE04C489030006869
:1023500020F001004949C1F890000846D0F89000EB
:1023600020F00400C1F8900000BFA068A8B1FFF7FA
:10237000A9F9054609E0FFF7A5F9401B41F28831AC
:10238000884202D9032078E625E03C489030006876
:1023900000F002000028EED013E0FFF793F90546A5
:1023A00008E0FFF78FF9401B41F28831884201D9DC
:1023B000032062E631489030006800F002000028F7
:1023C000EFD1B8F1010F05D12C48806D20F080507D
:1023D0002A49886500BF207800F02000202836D1E7
:1023E000A069D0B125489830006840F00100234929
:1023F000C1F89800FFF766F9054606E0FFF762F9B5
:10240000401B022801D9032037E61C489830006899
:1024100000F002000028F1D019E018489830006858
:1024200020F001001549C1F89800FFF74BF9054667
:1024300006E0FFF747F9401B022801D903201CE6FC
:102440000E489830006800F002000028F1D1E069E1
:10245000002860D00948806800F00C000C287AD071
:10246000E069022858D10548006820F080700349CF
:102470000860FFF727F905460DE000000010024054
:102480001400002000700040FFF71CF9401B0228D8
:1024900001D90320F1E54A48006800F000700028E7
:1024A000F2D1D4E90810401E41EA0011A06A41EAC5
:1024B0000021208E0122C2EB500041EA405134201D
:1024C000005DC2EB500041EA40612C20005D41EA12
:1024D000C0603B49C9683B4A114008433849C8605D
:1024E0000846006840F0807008600846C06840F008
:1024F0008070C860FFF7E6F8054606E0FFF7E2F8EF
:10250000401B022801D90320B7E52D48006800F0E0
:1025100000700028F2D051E02948006820F0807057
:1025200027490860FFF7CEF8054606E0FFF7CAF82E
:10253000401B022801D903209FE52148006800F0D4
:1025400000700028F2D11E48C0681F4908401C498D
:10255000C86033E0FFE7E069012800D18DE5184845
:10256000C66806F00301206A814225D106F0F00119
:10257000606A401EB1EB001F1ED106F4FE41A06A46
:10258000B1EB002F18D106F078412C20005DB1EBA3
:10259000C06F11D106F4C001208E0122C2EB5000A1
:1025A000B1EB405F08D106F0C0613420005DC2EBA2
:1025B0005000B1EB406F01D001205EE500205CE5EA
:1025C000001002400C809F01FCFFEEFE70B5044637
:1025D0002546681EB0F1807F01D301200FE0681E00
:1025E0004FF0E02148610F214FF0FF3000F082FCF6
:1025F00000204FF0E021886107200861002070BDB5
:10260000704770477047704770477047704710B504
:1026100004460CB9012010BD94F83D0028B90020F3
:1026200084F83C00204600F029F8022084F83D00A0
:10263000211D206800F0D8FB012084F8480000BF6D
:1026400084F83E0001213F200155402001554120E2
:102650000155422001554320015500BF00BF012014
:1026600084F8440045200155462001554720015576
:1026700000BF012084F83D000020CCE738B50446B7
:102680002068B0F1804F15D100BF0B48806D40F03D
:102690000100094988650846806D00F0010000903E
:1026A00000BF00BF002211461C20FFF78FF81C203E
:1026B000FFF778F838BD000000100240014691F89D
:1026C0003D00012801D001207047022081F83D0023
:1026D0000868C06840F001000B68D8601C4B0868AF
:1026E00098421BD00868B0F1804F17D0194B08688A
:1026F000984213D0184B086898420FD0174B0868BF
:1027000098420BD0164B0868984207D0154B0868C2
:10271000984203D0144B0868984210D1086880682A
:10272000124B00EA0302062A0FD0B2F5803F0CD00C
:102730000868006840F001000B68186005E0086850
:10274000006840F001000B6818600020BCE7000042
:10275000002C01400004004000080040000C004034
:1027600000340140004001400050014007000100DA
:10277000704770B504462068C6682068056905F092
:102780000200022819D106F00200022815D1401FCC
:1027900021680861012020772068806900F003002B
:1027A00018B12046FFF7E4FF05E0204600F0F1F8FD
:1027B000204600F0EFF80020207705F00400042800
:1027C00019D106F00400042815D1C043216808611E
:1027D000022020772068806900F4407018B12046FC
:1027E000FFF7C6FF05E0204600F0D3F8204600F0D2
:1027F000D1F80020207705F00800082819D106F04C
:102800000800082815D1C0432168086104202077FA
:102810002068C06900F0030018B12046FFF7A8FF48
:1028200005E0204600F0B5F8204600F0B3F800209F
:10283000207705F01000102819D106F0100010289C
:1028400015D1C04321680861082020772068C0693D
:1028500000F4407018B12046FFF78AFF05E02046DB
:1028600000F097F8204600F095F80020207705F05A
:10287000010048B106F0010030B16FF0010021689D
:102880000861204600F088F805F08000802804D018
:1028900005F40050B0F5005F0AD106F080008028F2
:1028A00006D16FF40250216808612046FFF7A9FEA7
:1028B00005F48070B0F5807F0AD106F08000802892
:1028C00006D16FF48070216808612046FFF798FEFA
:1028D00005F04000402809D106F04000402805D10D
:1028E000C04321680861204600F0A8F805F02000E8
:1028F000202809D106F02000202805D1C0432168F6
:1029000008612046FFF77EFE05F48010B0F5801FB9
:102910000BD106F48010B0F5801F06D16FF4801043
:10292000216808612046FFF76FFE05F40010B0F53E
:10293000001F0BD106F40010B0F5001F06D16FF494
:102940000010216808612046FFF75DFE05F4800055
:10295000B0F5800F0BD106F48000B0F5800F06D1E2
:102960006FF48000216808612046FFF74EFE05F4F1
:102970000000B0F5000F0BD106F40000B0F5000F19
:1029800006D16FF40000216808612046FFF73EFE83
:1029900070BD7047704700000168B1F1804F49D1A8
:1029A00025490979012945D123490968491C224A49
:1029B000116011460968642904D31146497909B99F
:1029C000012151711C490968782905D31A4989796F
:1029D00011B90121184A917117490968B42905D321
:1029E0001549C97911B90121134AD17112490968F0
:1029F000B1F5FA7F05D31049097A11B901210E4AC0
:102A000011720D490968B1F57A7F05D30A49497AEF
:102A100011B90121084A51720749096840F6B832D4
:102A2000914207D30449897A21B90121024A91725E
:102A30000021117170470000F0040020704700BFB2
:102A4000FEE7000008B500BF1948806C40F00400A4
:102A5000174988640846806C00F00400009000BFAD
:102A600000BF00BF0846806C40F001008864084643
:102A7000806C00F00100009000BF00BF00221146F2
:102A80000D20FEF7A3FE0D20FEF78CFE002211465E
:102A90000E20FEF79BFE0E20FEF784FE002211465C
:102AA0001020FEF793FE1020FEF77CFE08BD00000C
:102AB0000010024008B51748174908600020486018
:102AC000002115488160C16001744174817428211E
:102AD0004161012181610521C16102210162012160
:102AE00041628162C1620163002141638163C1630C
:102AF000FEF7B8FA08B1FDF755FD012003460022A4
:102B0000114600900448FEF7FDF808B1FDF74AFDB4
:102B100008BD0000006400408402002008B517488A
:102B20001749086000204860002115488160C16095
:102B30000174417481742821416101218161052161
:102B4000C16102210162012141628162C1620163AE
:102B5000002141638163C163FEF784FA08B1FDF788
:102B600021FD012003460022114600900448FEF793
:102B7000C9F808B1FDF716FD08BD00000068004067
:102B8000E802002000B587B0142102A8FDF794FBED
:102B900000BF4148C06C40F010003F49C86408467F
:102BA000C06C00F01000019000BF00BF00BF0846DD
:102BB000C06C40F00400C8640846C06C00F004001B
:102BC000019000BF00BF00BF0846C06C40F020006D
:102BD000C8640846C06C00F02000019000BF00BF30
:102BE00000BF0846C06C40F00100C8640846C06CD5
:102BF00000F00100019000BF00BF00BF0846C06C9C
:102C000040F00200C8640846C06C00F00200019069
:102C100000BF00BF00BF0846C06C40F00800C86499
:102C20000846C06C00F00800019000BF00BF002201
:102C3000B0211A48FEF740FD012204211748FEF793
:102C40003BFDB420029001200390002004900590E9
:102C500002A91248FEF742FC402002900020039097
:102C6000049002A90D48FEF739FC4FF40050029081
:102C700000200390049002A90948FEF72FFC4FF4AE
:102C800080700290032003900020049002A9054860
:102C9000FEF724FC07B000BD001002400010004801
:102CA000000800480004004810B54FF08040094972
:102CB00008609F20486000210648816040F2E731AB
:102CC000C160002101618161FFF7A1FC08B1FDF73E
:102CD00069FC10BDA404002000BFFEE700BFFEE7B2
:102CE0007047000070B5164DED6805F00304144DF3
:102CF000ED68C5F303156B1C022C0CD0032C09D115
:102D0000104DB5FBF3F50E4EF668C6F3062605FB2F
:102D100006F10AE000BF0C4DB5FBF3F5084EF6686E
:102D2000C6F3062605FB06F100BF00BF044DED68A3
:102D3000C5F341656D1C6A00B1FBF2F070BD000087
:102D40000010024000127A000024F400704710B511
:102D5000FEF7BEFC10BD00B593B0382105A8FDF705
:102D6000ABFA14216846FDF7A7FA0020FEF780FDB4
:102D7000012005900004069002200C9003210D9183
:102D800002210E9150210F91022110911191129167
:102D900005A8FFF76DF908B1FDF704FC0F200090BE
:102DA00003200190002002904FF480600390049073
:102DB00004216846FEF7FEFF08B1FDF7F3FB13B0F0
:102DC00000BD00000348006840F47000014908603D
:102DD0007047000088ED00E010B50248FFF7C9FC1D
:102DE00010BD0000A404002010B502682F4B9842CB
:102DF00011D0B0F1804F0ED02D4B98420BD02D4BFF
:102E0000984208D02C4B984205D02C4B984202D0C7
:102E10002B4B984203D122F070024B681A43234B8C
:102E200098421AD0B0F1804F17D0214B984214D05D
:102E3000204B984211D0204B98420ED01F4B984205
:102E40000BD0204B984208D01F4B984205D01F4B07
:102E5000984202D01A4B984203D122F44072CB68B8
:102E60001A4322F080034C6943EA04028B68C36270
:102E70000B6883620D4B98420ED0104B98420BD0DA
:102E8000104B984208D0104B984205D00F4B9842F7
:102E900002D00B4B984201D10B690363036843F0E6
:102EA0000403036001234361026010BD002C014054
:102EB0000004004000080040000C004000340140C5
:102EC00000500140004001400044014000480140E2
:102ED000020E0A70020C4A70020A8A70C8707047AB
:102EE00000BFFEE702480068C0F302207047000000
:102EF0000CED00E010B5002804DB0A07130E054AAC
:102F0000135406E00A07140E034A00F00F031B1FB8
:102F1000D45410BD00E400E018ED00E0FEF7E4FB3F
:102F2000FFF719FFFFF72EFEFFF78CFDFFF7C2FD3D
:102F3000FFF7F4FDFFF7B8FE1E48FFF7BFFBFDF7F4
:102F400073FD08B1FDF72EFB4EF66020FDF736FC51
:102F50001420FDF7FDFD0020FDF700FC1420FDF717
:102F6000F7FDFDF715FC1420FDF7F2FD21E0FDF75C
:102F70009BFB114908701420FDF7EAFDFDF752FB99
:102F80000E4908701420FDF7E3FDFDF777FB1420D0
:102F9000FDF7DEFDFDF75CFB1420FDF7D9FD0848C9
:102FA000007808B1FDF70AFB0648007808B1FDF784
:102FB00027FCDCE7A4040020000000200100002022
:102FC00004000020050000204FF04070E1EE100AE0
:102FD00070470001020304050607080C10141820AE
:102FE000304000000000000000000102030406075A
:102FF0000809000000000102030400001C30000862
:103000000000002020000000140200083C300008EE
:1030100020000020780B00003002000800000000B3
:1030200000000000000000000000000000000000A0
:0C30300010000000010000000024F4006B
:04000005080001D915
:00000001FF
